{
  "contractName": "Ownable",
  "abi": [
    {
      "inputs": [],
      "stateMutability": "nonpayable",
      "type": "constructor"
    },
    {
      "anonymous": false,
      "inputs": [
        {
          "indexed": true,
          "internalType": "address",
          "name": "oldOwner",
          "type": "address"
        },
        {
          "indexed": true,
          "internalType": "address",
          "name": "newOwner",
          "type": "address"
        }
      ],
      "name": "TransferOwnership",
      "type": "event"
    },
    {
      "inputs": [],
      "name": "isOwner",
      "outputs": [
        {
          "internalType": "bool",
          "name": "",
          "type": "bool"
        }
      ],
      "stateMutability": "view",
      "type": "function"
    },
    {
      "inputs": [],
      "name": "renounceOwnership",
      "outputs": [],
      "stateMutability": "nonpayable",
      "type": "function"
    },
    {
      "inputs": [
        {
          "internalType": "address",
          "name": "newOwner",
          "type": "address"
        }
      ],
      "name": "transferOwnership",
      "outputs": [],
      "stateMutability": "nonpayable",
      "type": "function"
    }
  ],
  "bytecode": "0x608060405234801561001057600080fd5b50336000806101000a81548173ffffffffffffffffffffffffffffffffffffffff021916908373ffffffffffffffffffffffffffffffffffffffff16021790555060008054906101000a900473ffffffffffffffffffffffffffffffffffffffff1673ffffffffffffffffffffffffffffffffffffffff16600073ffffffffffffffffffffffffffffffffffffffff167f5c486528ec3e3f0ea91181cff8116f02bfa350e03b8b6f12e00765adbb5af85c60405160405180910390a36104a9806100db6000396000f3fe608060405234801561001057600080fd5b50600436106100415760003560e01c8063715018a6146100465780638f32d59b14610050578063f2fde38b1461006e575b600080fd5b61004e61008a565b005b61005861018f565b60405161006591906103a4565b60405180910390f35b61008860048036038101906100839190610345565b6101e6565b005b61009261018f565b6100d1576040517f08c379a00000000000000000000000000000000000000000000000000000000081526004016100c8906103bf565b60405180910390fd5b600073ffffffffffffffffffffffffffffffffffffffff1660008054906101000a900473ffffffffffffffffffffffffffffffffffffffff1673ffffffffffffffffffffffffffffffffffffffff167f5c486528ec3e3f0ea91181cff8116f02bfa350e03b8b6f12e00765adbb5af85c60405160405180910390a360008060006101000a81548173ffffffffffffffffffffffffffffffffffffffff021916908373ffffffffffffffffffffffffffffffffffffffff160217905550565b60008060009054906101000a900473ffffffffffffffffffffffffffffffffffffffff1673ffffffffffffffffffffffffffffffffffffffff163373ffffffffffffffffffffffffffffffffffffffff1614905090565b6101ee61018f565b61022d576040517f08c379a0000000000000000000000000000000000000000000000000000000008152600401610224906103bf565b60405180910390fd5b61023681610239565b50565b600073ffffffffffffffffffffffffffffffffffffffff168173ffffffffffffffffffffffffffffffffffffffff16141561027357600080fd5b8073ffffffffffffffffffffffffffffffffffffffff1660008054906101000a900473ffffffffffffffffffffffffffffffffffffffff1673ffffffffffffffffffffffffffffffffffffffff167f5c486528ec3e3f0ea91181cff8116f02bfa350e03b8b6f12e00765adbb5af85c60405160405180910390a3806000806101000a81548173ffffffffffffffffffffffffffffffffffffffff021916908373ffffffffffffffffffffffffffffffffffffffff16021790555050565b60008135905061033f8161045c565b92915050565b60006020828403121561035b5761035a61042e565b5b600061036984828501610330565b91505092915050565b61037b81610402565b82525050565b600061038e6016836103df565b915061039982610433565b602082019050919050565b60006020820190506103b96000830184610372565b92915050565b600060208201905081810360008301526103d881610381565b9050919050565b600082825260208201905092915050565b60006103fb8261040e565b9050919050565b60008115159050919050565b600073ffffffffffffffffffffffffffffffffffffffff82169050919050565b600080fd5b7f596f7520617265206e6f7420746865206f77656e657200000000000000000000600082015250565b610465816103f0565b811461047057600080fd5b5056fea2646970667358221220264beed1b95d5852f2673f91c8781f42465ee5b49e2699e5b75c8b325f35d86d64736f6c63430008060033",
  "immutableReferences": {},
  "source": "// SPDX-License-Identifier: MIT\npragma solidity ^0.8.6;\n\n/// Provides basic authorization control\ncontract Ownable {\n    address private origOwner;\n\n    // Define an Event\n    event TransferOwnership(address indexed oldOwner, address indexed newOwner);\n\n    /// Assign the contract to an owner\n    constructor () {\n        origOwner = msg.sender;\n        emit TransferOwnership(address(0), origOwner);\n    }\n\n    // /// Look up the address of the owner\n    // function owner() public view returns (address) {\n    //     return origOwner;\n    // }\n\n    /// Define a function modifier 'onlyOwner'\n    modifier onlyOwner() virtual {\n        require(isOwner(), \"You are not the owener\");\n        _;\n    }\n\n    /// Check if the calling address is the owner of the contract\n    function isOwner() public view returns (bool) {\n        return msg.sender == origOwner;\n    }\n\n    /// Define a function to renounce ownerhip\n    function renounceOwnership() public onlyOwner {\n        emit TransferOwnership(origOwner, address(0));\n        origOwner = address(0);\n    }\n\n    /// Define a public function to transfer ownership\n    function transferOwnership(address newOwner) public onlyOwner {\n        _transferOwnership(newOwner);\n    }\n\n    /// Define an internal function to transfer ownership\n    function _transferOwnership(address newOwner) internal {\n        require(newOwner != address(0));\n        emit TransferOwnership(origOwner, newOwner);\n        origOwner = newOwner;\n    }\n}\n",
  "sourcePath": "/Users/bberta/playground/nanodegree_programe/Etherum/bberta_project6/project-6/contracts/coffeecore/Ownable.sol",
  "compiler": {
    "name": "solc",
    "version": "0.8.6+commit.11564f7e.Emscripten.clang"
  },
  "schemaVersion": "3.3.4",
  "updatedAt": "2021-07-12T07:31:45.157Z",
  "devdoc": {
    "kind": "dev",
    "methods": {},
    "version": 1
  },
  "userdoc": {
    "kind": "user",
    "methods": {
      "constructor": {
        "notice": "Assign the contract to an owner"
      },
      "isOwner()": {
        "notice": "Check if the calling address is the owner of the contract"
      },
      "renounceOwnership()": {
        "notice": "Define a function to renounce ownerhip"
      },
      "transferOwnership(address)": {
        "notice": "Define a public function to transfer ownership"
      }
    },
    "notice": "Provides basic authorization control",
    "version": 1
  }
}