{
  "contractName": "SupplyChain",
  "abi": [
    {
      "inputs": [],
      "stateMutability": "payable",
      "type": "constructor",
      "payable": true
    },
    {
      "anonymous": false,
      "inputs": [
        {
          "indexed": true,
          "internalType": "address",
          "name": "account",
          "type": "address"
        }
      ],
      "name": "ConsumerAdded",
      "type": "event"
    },
    {
      "anonymous": false,
      "inputs": [
        {
          "indexed": true,
          "internalType": "address",
          "name": "account",
          "type": "address"
        }
      ],
      "name": "ConsumerRemoved",
      "type": "event"
    },
    {
      "anonymous": false,
      "inputs": [
        {
          "indexed": true,
          "internalType": "address",
          "name": "account",
          "type": "address"
        }
      ],
      "name": "DistrbutorAdded",
      "type": "event"
    },
    {
      "anonymous": false,
      "inputs": [
        {
          "indexed": true,
          "internalType": "address",
          "name": "account",
          "type": "address"
        }
      ],
      "name": "DistributorRemoved",
      "type": "event"
    },
    {
      "anonymous": false,
      "inputs": [
        {
          "indexed": true,
          "internalType": "address",
          "name": "account",
          "type": "address"
        }
      ],
      "name": "FarmerAdded",
      "type": "event"
    },
    {
      "anonymous": false,
      "inputs": [
        {
          "indexed": true,
          "internalType": "address",
          "name": "account",
          "type": "address"
        }
      ],
      "name": "FarmerRemoved",
      "type": "event"
    },
    {
      "anonymous": false,
      "inputs": [
        {
          "indexed": false,
          "internalType": "uint256",
          "name": "upc",
          "type": "uint256"
        }
      ],
      "name": "ForSale",
      "type": "event"
    },
    {
      "anonymous": false,
      "inputs": [
        {
          "indexed": false,
          "internalType": "uint256",
          "name": "upc",
          "type": "uint256"
        }
      ],
      "name": "Harvested",
      "type": "event"
    },
    {
      "anonymous": false,
      "inputs": [
        {
          "indexed": false,
          "internalType": "uint256",
          "name": "upc",
          "type": "uint256"
        }
      ],
      "name": "Packed",
      "type": "event"
    },
    {
      "anonymous": false,
      "inputs": [
        {
          "indexed": false,
          "internalType": "uint256",
          "name": "upc",
          "type": "uint256"
        }
      ],
      "name": "Processed",
      "type": "event"
    },
    {
      "anonymous": false,
      "inputs": [
        {
          "indexed": false,
          "internalType": "uint256",
          "name": "upc",
          "type": "uint256"
        }
      ],
      "name": "Purchased",
      "type": "event"
    },
    {
      "anonymous": false,
      "inputs": [
        {
          "indexed": false,
          "internalType": "uint256",
          "name": "upc",
          "type": "uint256"
        }
      ],
      "name": "Received",
      "type": "event"
    },
    {
      "anonymous": false,
      "inputs": [
        {
          "indexed": true,
          "internalType": "address",
          "name": "account",
          "type": "address"
        }
      ],
      "name": "RetailerAdded",
      "type": "event"
    },
    {
      "anonymous": false,
      "inputs": [
        {
          "indexed": true,
          "internalType": "address",
          "name": "account",
          "type": "address"
        }
      ],
      "name": "RetailerRemoved",
      "type": "event"
    },
    {
      "anonymous": false,
      "inputs": [
        {
          "indexed": false,
          "internalType": "uint256",
          "name": "upc",
          "type": "uint256"
        }
      ],
      "name": "Shipped",
      "type": "event"
    },
    {
      "anonymous": false,
      "inputs": [
        {
          "indexed": false,
          "internalType": "uint256",
          "name": "upc",
          "type": "uint256"
        }
      ],
      "name": "Sold",
      "type": "event"
    },
    {
      "anonymous": false,
      "inputs": [
        {
          "indexed": true,
          "internalType": "address",
          "name": "oldOwner",
          "type": "address"
        },
        {
          "indexed": true,
          "internalType": "address",
          "name": "newOwner",
          "type": "address"
        }
      ],
      "name": "TransferOwnership",
      "type": "event"
    },
    {
      "inputs": [
        {
          "internalType": "address",
          "name": "account",
          "type": "address"
        }
      ],
      "name": "addConsumer",
      "outputs": [],
      "stateMutability": "nonpayable",
      "type": "function"
    },
    {
      "inputs": [
        {
          "internalType": "address",
          "name": "account",
          "type": "address"
        }
      ],
      "name": "addDistributor",
      "outputs": [],
      "stateMutability": "nonpayable",
      "type": "function"
    },
    {
      "inputs": [
        {
          "internalType": "address",
          "name": "account",
          "type": "address"
        }
      ],
      "name": "addFarmer",
      "outputs": [],
      "stateMutability": "nonpayable",
      "type": "function"
    },
    {
      "inputs": [
        {
          "internalType": "address",
          "name": "account",
          "type": "address"
        }
      ],
      "name": "addRetailer",
      "outputs": [],
      "stateMutability": "nonpayable",
      "type": "function"
    },
    {
      "inputs": [
        {
          "internalType": "address",
          "name": "account",
          "type": "address"
        }
      ],
      "name": "isConsumer",
      "outputs": [
        {
          "internalType": "bool",
          "name": "",
          "type": "bool"
        }
      ],
      "stateMutability": "view",
      "type": "function",
      "constant": true
    },
    {
      "inputs": [
        {
          "internalType": "address",
          "name": "account",
          "type": "address"
        }
      ],
      "name": "isDistributor",
      "outputs": [
        {
          "internalType": "bool",
          "name": "",
          "type": "bool"
        }
      ],
      "stateMutability": "view",
      "type": "function",
      "constant": true
    },
    {
      "inputs": [
        {
          "internalType": "address",
          "name": "account",
          "type": "address"
        }
      ],
      "name": "isFarmer",
      "outputs": [
        {
          "internalType": "bool",
          "name": "",
          "type": "bool"
        }
      ],
      "stateMutability": "view",
      "type": "function",
      "constant": true
    },
    {
      "inputs": [],
      "name": "isOwner",
      "outputs": [
        {
          "internalType": "bool",
          "name": "",
          "type": "bool"
        }
      ],
      "stateMutability": "view",
      "type": "function",
      "constant": true
    },
    {
      "inputs": [
        {
          "internalType": "address",
          "name": "account",
          "type": "address"
        }
      ],
      "name": "isRetailer",
      "outputs": [
        {
          "internalType": "bool",
          "name": "",
          "type": "bool"
        }
      ],
      "stateMutability": "view",
      "type": "function",
      "constant": true
    },
    {
      "inputs": [],
      "name": "renounceConsumer",
      "outputs": [],
      "stateMutability": "nonpayable",
      "type": "function"
    },
    {
      "inputs": [],
      "name": "renounceDistributor",
      "outputs": [],
      "stateMutability": "nonpayable",
      "type": "function"
    },
    {
      "inputs": [],
      "name": "renounceFarmer",
      "outputs": [],
      "stateMutability": "nonpayable",
      "type": "function"
    },
    {
      "inputs": [],
      "name": "renounceOwnership",
      "outputs": [],
      "stateMutability": "nonpayable",
      "type": "function"
    },
    {
      "inputs": [],
      "name": "renounceRetailer",
      "outputs": [],
      "stateMutability": "nonpayable",
      "type": "function"
    },
    {
      "inputs": [
        {
          "internalType": "address",
          "name": "newOwner",
          "type": "address"
        }
      ],
      "name": "transferOwnership",
      "outputs": [],
      "stateMutability": "nonpayable",
      "type": "function"
    },
    {
      "inputs": [],
      "name": "kill",
      "outputs": [],
      "stateMutability": "nonpayable",
      "type": "function"
    },
    {
      "inputs": [
        {
          "internalType": "uint256",
          "name": "_upc",
          "type": "uint256"
        },
        {
          "internalType": "address payable",
          "name": "_originFarmerID",
          "type": "address"
        },
        {
          "internalType": "string",
          "name": "_originFarmName",
          "type": "string"
        },
        {
          "internalType": "string",
          "name": "_originFarmInformation",
          "type": "string"
        },
        {
          "internalType": "string",
          "name": "_originFarmLatitude",
          "type": "string"
        },
        {
          "internalType": "string",
          "name": "_originFarmLongitude",
          "type": "string"
        },
        {
          "internalType": "string",
          "name": "_productNotes",
          "type": "string"
        }
      ],
      "name": "harvestItem",
      "outputs": [],
      "stateMutability": "nonpayable",
      "type": "function"
    },
    {
      "inputs": [
        {
          "internalType": "uint256",
          "name": "_upc",
          "type": "uint256"
        }
      ],
      "name": "processItem",
      "outputs": [],
      "stateMutability": "nonpayable",
      "type": "function"
    },
    {
      "inputs": [
        {
          "internalType": "uint256",
          "name": "_upc",
          "type": "uint256"
        }
      ],
      "name": "packItem",
      "outputs": [],
      "stateMutability": "nonpayable",
      "type": "function"
    },
    {
      "inputs": [
        {
          "internalType": "uint256",
          "name": "_upc",
          "type": "uint256"
        },
        {
          "internalType": "uint256",
          "name": "_price",
          "type": "uint256"
        }
      ],
      "name": "sellItem",
      "outputs": [],
      "stateMutability": "nonpayable",
      "type": "function"
    },
    {
      "inputs": [
        {
          "internalType": "uint256",
          "name": "_upc",
          "type": "uint256"
        }
      ],
      "name": "buyItem",
      "outputs": [],
      "stateMutability": "payable",
      "type": "function",
      "payable": true
    },
    {
      "inputs": [
        {
          "internalType": "uint256",
          "name": "_upc",
          "type": "uint256"
        }
      ],
      "name": "shipItem",
      "outputs": [],
      "stateMutability": "nonpayable",
      "type": "function"
    },
    {
      "inputs": [
        {
          "internalType": "uint256",
          "name": "_upc",
          "type": "uint256"
        }
      ],
      "name": "receiveItem",
      "outputs": [],
      "stateMutability": "nonpayable",
      "type": "function"
    },
    {
      "inputs": [
        {
          "internalType": "uint256",
          "name": "_upc",
          "type": "uint256"
        }
      ],
      "name": "purchaseItem",
      "outputs": [],
      "stateMutability": "nonpayable",
      "type": "function"
    },
    {
      "inputs": [
        {
          "internalType": "uint256",
          "name": "_upc",
          "type": "uint256"
        }
      ],
      "name": "fetchItemBufferOne",
      "outputs": [
        {
          "internalType": "uint256",
          "name": "itemSKU",
          "type": "uint256"
        },
        {
          "internalType": "uint256",
          "name": "itemUPC",
          "type": "uint256"
        },
        {
          "internalType": "address",
          "name": "ownerID",
          "type": "address"
        },
        {
          "internalType": "address",
          "name": "originFarmerID",
          "type": "address"
        },
        {
          "internalType": "string",
          "name": "originFarmName",
          "type": "string"
        },
        {
          "internalType": "string",
          "name": "originFarmInformation",
          "type": "string"
        },
        {
          "internalType": "string",
          "name": "originFarmLatitude",
          "type": "string"
        },
        {
          "internalType": "string",
          "name": "originFarmLongitude",
          "type": "string"
        }
      ],
      "stateMutability": "view",
      "type": "function",
      "constant": true
    },
    {
      "inputs": [
        {
          "internalType": "uint256",
          "name": "_upc",
          "type": "uint256"
        }
      ],
      "name": "fetchItemBufferTwo",
      "outputs": [
        {
          "internalType": "uint256",
          "name": "itemSKU",
          "type": "uint256"
        },
        {
          "internalType": "uint256",
          "name": "itemUPC",
          "type": "uint256"
        },
        {
          "internalType": "uint256",
          "name": "productID",
          "type": "uint256"
        },
        {
          "internalType": "string",
          "name": "productNotes",
          "type": "string"
        },
        {
          "internalType": "uint256",
          "name": "productPrice",
          "type": "uint256"
        },
        {
          "internalType": "uint256",
          "name": "itemState",
          "type": "uint256"
        },
        {
          "internalType": "address",
          "name": "distributorID",
          "type": "address"
        },
        {
          "internalType": "address",
          "name": "retailerID",
          "type": "address"
        },
        {
          "internalType": "address",
          "name": "consumerID",
          "type": "address"
        }
      ],
      "stateMutability": "view",
      "type": "function",
      "constant": true
    }
  ],
  "bytecode": "0x6080604052336000806101000a81548173ffffffffffffffffffffffffffffffffffffffff021916908373ffffffffffffffffffffffffffffffffffffffff16021790555060008054906101000a900473ffffffffffffffffffffffffffffffffffffffff1673ffffffffffffffffffffffffffffffffffffffff16600073ffffffffffffffffffffffffffffffffffffffff167f5c486528ec3e3f0ea91181cff8116f02bfa350e03b8b6f12e00765adbb5af85c60405160405180910390a3620000d0336200015a60201b60201c565b620000e133620001bb60201b60201c565b620000f2336200021c60201b60201c565b62000103336200023a60201b60201c565b33600560006101000a81548173ffffffffffffffffffffffffffffffffffffffff021916908373ffffffffffffffffffffffffffffffffffffffff16021790555060016007819055506001600681905550620003e4565b620001758160016200029b60201b6200234e1790919060201c565b8073ffffffffffffffffffffffffffffffffffffffff167f2e0ded4123377a3c2bc9a26f1717655a129e2f20752924d42e730ec89c83dbd060405160405180910390a250565b620001d68160026200029b60201b6200234e1790919060201c565b8073ffffffffffffffffffffffffffffffffffffffff167f640591101e3887776cd3fa5a43ac12b136c73f29ecd6718b59db93b4cc62890860405160405180910390a250565b620002378160036200029b60201b6200234e1790919060201c565b50565b620002558160046200029b60201b6200234e1790919060201c565b8073ffffffffffffffffffffffffffffffffffffffff167f28b26e7a3d20aedbc5f8f2ebf7da671c0491723a2b78f47a097b0e46dee0714260405160405180910390a250565b600073ffffffffffffffffffffffffffffffffffffffff168173ffffffffffffffffffffffffffffffffffffffff161415620002d657600080fd5b620002e882826200035160201b60201c565b15620002f357600080fd5b60018260000160008373ffffffffffffffffffffffffffffffffffffffff1673ffffffffffffffffffffffffffffffffffffffff16815260200190815260200160002060006101000a81548160ff0219169083151502179055505050565b60008073ffffffffffffffffffffffffffffffffffffffff168273ffffffffffffffffffffffffffffffffffffffff1614156200038d57600080fd5b8260000160008373ffffffffffffffffffffffffffffffffffffffff1673ffffffffffffffffffffffffffffffffffffffff16815260200190815260200160002060009054906101000a900460ff16905092915050565b61367280620003f46000396000f3fe6080604052600436106101815760003560e01c8063834ff739116100d1578063bdd8a6a81161008a578063e7fb74c711610064578063e7fb74c714610529578063f2fde38b14610545578063f30fc4801461056e578063f61c899a1461059757610181565b8063bdd8a6a8146104c0578063d38ea5bf146104e9578063db0e6a2f1461051257610181565b8063834ff7391461038c5780638ec4f505146103c95780638f0c86fa146103f25780638f32d59b1461042f578063a26be9991461045a578063b94290691461048357610181565b8063644241db1161013e5780637250e224116101185780637250e224146102df57806377c459131461030857806380c3f96d1461034c57806380fc0ce41461037557610181565b8063644241db1461026c57806366225ff914610283578063715018a6146102c857610181565b8063112940f9146101865780632d923561146101af57806341c0e1b5146101d857806349dae766146101ef5780635da09b881461021857806361e6982d14610255575b600080fd5b34801561019257600080fd5b506101ad60048036038101906101a89190612a0d565b6105c0565b005b3480156101bb57600080fd5b506101d660048036038101906101d19190612b95565b610614565b005b3480156101e457600080fd5b506101ed610823565b005b3480156101fb57600080fd5b5061021660048036038101906102119190612a3a565b6108b6565b005b34801561022457600080fd5b5061023f600480360381019061023a9190612a0d565b610aa9565b60405161024c9190612e02565b60405180910390f35b34801561026157600080fd5b5061026a610ac6565b005b34801561027857600080fd5b50610281610ad1565b005b34801561028f57600080fd5b506102aa60048036038101906102a59190612a3a565b610adc565b6040516102bf99989796959493929190613072565b60405180910390f35b3480156102d457600080fd5b506102dd610ce0565b005b3480156102eb57600080fd5b5061030660048036038101906103019190612a0d565b610df8565b005b34801561031457600080fd5b5061032f600480360381019061032a9190612a3a565b610e4c565b604051610343989796959493929190612fd8565b60405180910390f35b34801561035857600080fd5b50610373600480360381019061036e9190612a0d565b61118b565b005b34801561038157600080fd5b5061038a6111df565b005b34801561039857600080fd5b506103b360048036038101906103ae9190612a0d565b6111ea565b6040516103c09190612e02565b60405180910390f35b3480156103d557600080fd5b506103f060048036038101906103eb9190612a0d565b611207565b005b3480156103fe57600080fd5b5061041960048036038101906104149190612a0d565b61125b565b6040516104269190612e02565b60405180910390f35b34801561043b57600080fd5b50610444611278565b6040516104519190612e02565b60405180910390f35b34801561046657600080fd5b50610481600480360381019061047c9190612a3a565b6112cf565b005b34801561048f57600080fd5b506104aa60048036038101906104a59190612a0d565b6114cc565b6040516104b79190612e02565b60405180910390f35b3480156104cc57600080fd5b506104e760048036038101906104e29190612a67565b6114e9565b005b3480156104f557600080fd5b50610510600480360381019061050b9190612a3a565b611979565b005b34801561051e57600080fd5b50610527611b76565b005b610543600480360381019061053e9190612a3a565b611b81565b005b34801561055157600080fd5b5061056c60048036038101906105679190612a0d565b611f02565b005b34801561057a57600080fd5b5061059560048036038101906105909190612a3a565b611f68565b005b3480156105a357600080fd5b506105be60048036038101906105b99190612a3a565b61215b565b005b6105c9336111ea565b610608576040517f08c379a00000000000000000000000000000000000000000000000000000000081526004016105ff90612e1d565b60405180910390fd5b610611816123fa565b50565b816002600781111561062957610628613330565b5b60086000838152602001908152602001600020600b0160009054906101000a900460ff16600781111561065f5761065e613330565b5b1461069f576040517f08c379a000000000000000000000000000000000000000000000000000000000815260040161069690612f7d565b60405180910390fd5b6008600084815260200190815260200160002060020160009054906101000a900473ffffffffffffffffffffffffffffffffffffffff168073ffffffffffffffffffffffffffffffffffffffff163373ffffffffffffffffffffffffffffffffffffffff1614610744576040517f08c379a000000000000000000000000000000000000000000000000000000000815260040161073b90612edd565b60405180910390fd5b61074d336114cc565b61078c576040517f08c379a000000000000000000000000000000000000000000000000000000000815260040161078390612f5d565b60405180910390fd5b8260086000868152602001908152602001600020600a0181905550600360086000868152602001908152602001600020600b0160006101000a81548160ff021916908360078111156107e1576107e0613330565b5b02179055507fa96ae0fc3224ebd79eebfe54bd130cc9cb94416cddd1f2386115e00b72532468846040516108159190612fbd565b60405180910390a150505050565b600560009054906101000a900473ffffffffffffffffffffffffffffffffffffffff1673ffffffffffffffffffffffffffffffffffffffff163373ffffffffffffffffffffffffffffffffffffffff1614156108b457600560009054906101000a900473ffffffffffffffffffffffffffffffffffffffff1673ffffffffffffffffffffffffffffffffffffffff16ff5b565b80600060078111156108cb576108ca613330565b5b60086000838152602001908152602001600020600b0160009054906101000a900460ff16600781111561090157610900613330565b5b14610941576040517f08c379a000000000000000000000000000000000000000000000000000000000815260040161093890612efd565b60405180910390fd5b6008600083815260200190815260200160002060030160009054906101000a900473ffffffffffffffffffffffffffffffffffffffff168073ffffffffffffffffffffffffffffffffffffffff163373ffffffffffffffffffffffffffffffffffffffff16146109e6576040517f08c379a00000000000000000000000000000000000000000000000000000000081526004016109dd90612edd565b60405180910390fd5b6109ef336114cc565b610a2e576040517f08c379a0000000000000000000000000000000000000000000000000000000008152600401610a2590612f5d565b60405180910390fd5b600160086000858152602001908152602001600020600b0160006101000a81548160ff02191690836007811115610a6857610a67613330565b5b02179055507f5afe3b1bf87069693c075da5c22a98d63d1aef98a30dbbe538d0781a98b77ee583604051610a9c9190612fbd565b60405180910390a1505050565b6000610abf82600361245490919063ffffffff16565b9050919050565b610acf336124e6565b565b610ada33612540565b565b600080600060606000806000806000600860008b8152602001908152602001600020600001549850600860008b8152602001908152602001600020600101549750600860008b8152602001908152602001600020600801549650600860008b81526020019081526020016000206009018054610b579061329e565b80601f0160208091040260200160405190810160405280929190818152602001828054610b839061329e565b8015610bd05780601f10610ba557610100808354040283529160200191610bd0565b820191906000526020600020905b815481529060010190602001808311610bb357829003601f168201915b50505050509550600860008b8152602001908152602001600020600a01549450600860008b8152602001908152602001600020600b0160009054906101000a900460ff166007811115610c2657610c25613330565b5b9350600860008b8152602001908152602001600020600b0160019054906101000a900473ffffffffffffffffffffffffffffffffffffffff169250600860008b8152602001908152602001600020600c0160009054906101000a900473ffffffffffffffffffffffffffffffffffffffff169150600860008b8152602001908152602001600020600d0160009054906101000a900473ffffffffffffffffffffffffffffffffffffffff1690509193959799909294969850565b600560009054906101000a900473ffffffffffffffffffffffffffffffffffffffff1673ffffffffffffffffffffffffffffffffffffffff163373ffffffffffffffffffffffffffffffffffffffff1614610d3a57600080fd5b600073ffffffffffffffffffffffffffffffffffffffff1660008054906101000a900473ffffffffffffffffffffffffffffffffffffffff1673ffffffffffffffffffffffffffffffffffffffff167f5c486528ec3e3f0ea91181cff8116f02bfa350e03b8b6f12e00765adbb5af85c60405160405180910390a360008060006101000a81548173ffffffffffffffffffffffffffffffffffffffff021916908373ffffffffffffffffffffffffffffffffffffffff160217905550565b610e013361125b565b610e40576040517f08c379a0000000000000000000000000000000000000000000000000000000008152600401610e3790612e5d565b60405180910390fd5b610e498161259a565b50565b600080600080606080606080600860008a8152602001908152602001600020600001549750600860008a8152602001908152602001600020600101549650600860008a815260200190815260200160002060020160009054906101000a900473ffffffffffffffffffffffffffffffffffffffff169550600860008a815260200190815260200160002060030160009054906101000a900473ffffffffffffffffffffffffffffffffffffffff169450600860008a81526020019081526020016000206004018054610f1d9061329e565b80601f0160208091040260200160405190810160405280929190818152602001828054610f499061329e565b8015610f965780601f10610f6b57610100808354040283529160200191610f96565b820191906000526020600020905b815481529060010190602001808311610f7957829003601f168201915b50505050509350600860008a81526020019081526020016000206005018054610fbe9061329e565b80601f0160208091040260200160405190810160405280929190818152602001828054610fea9061329e565b80156110375780601f1061100c57610100808354040283529160200191611037565b820191906000526020600020905b81548152906001019060200180831161101a57829003601f168201915b50505050509250600860008a8152602001908152602001600020600601805461105f9061329e565b80601f016020809104026020016040519081016040528092919081815260200182805461108b9061329e565b80156110d85780601f106110ad576101008083540402835291602001916110d8565b820191906000526020600020905b8154815290600101906020018083116110bb57829003601f168201915b50505050509150600860008a815260200190815260200160002060070180546111009061329e565b80601f016020809104026020016040519081016040528092919081815260200182805461112c9061329e565b80156111795780601f1061114e57610100808354040283529160200191611179565b820191906000526020600020905b81548152906001019060200180831161115c57829003601f168201915b50505050509050919395975091939597565b611194336114cc565b6111d3576040517f08c379a00000000000000000000000000000000000000000000000000000000081526004016111ca90612f5d565b60405180910390fd5b6111dc816125f4565b50565b6111e83361264e565b565b600061120082600461245490919063ffffffff16565b9050919050565b61121033610aa9565b61124f576040517f08c379a000000000000000000000000000000000000000000000000000000000815260040161124690612f1d565b60405180910390fd5b611258816126a8565b50565b600061127182600261245490919063ffffffff16565b9050919050565b60008060009054906101000a900473ffffffffffffffffffffffffffffffffffffffff1673ffffffffffffffffffffffffffffffffffffffff163373ffffffffffffffffffffffffffffffffffffffff1614905090565b80600560078111156112e4576112e3613330565b5b60086000838152602001908152602001600020600b0160009054906101000a900460ff16600781111561131a57611319613330565b5b1461135a576040517f08c379a000000000000000000000000000000000000000000000000000000000815260040161135190612e3d565b60405180910390fd5b61136333610aa9565b6113a2576040517f08c379a000000000000000000000000000000000000000000000000000000000815260040161139990612f1d565b60405180910390fd5b6000339050806008600085815260200190815260200160002060020160006101000a81548173ffffffffffffffffffffffffffffffffffffffff021916908373ffffffffffffffffffffffffffffffffffffffff1602179055508060086000858152602001908152602001600020600c0160006101000a81548173ffffffffffffffffffffffffffffffffffffffff021916908373ffffffffffffffffffffffffffffffffffffffff160217905550600660086000858152602001908152602001600020600b0160006101000a81548160ff0219169083600781111561148b5761148a613330565b5b02179055507fa8142743f8f70a4c26f3691cf4ed59718381fb2f18070ec52be1f1022d855557836040516114bf9190612fbd565b60405180910390a1505050565b60006114e282600161245490919063ffffffff16565b9050919050565b86600060078111156114fe576114fd613330565b5b60086000838152602001908152602001600020600b0160009054906101000a900460ff16600781111561153457611533613330565b5b14611574576040517f08c379a000000000000000000000000000000000000000000000000000000000815260040161156b90612efd565b60405180910390fd5b61157d336114cc565b6115bc576040517f08c379a00000000000000000000000000000000000000000000000000000000081526004016115b390612f5d565b60405180910390fd5b6000604051806101e0016040528060075481526020018a81526020018973ffffffffffffffffffffffffffffffffffffffff1681526020018973ffffffffffffffffffffffffffffffffffffffff1681526020018881526020018781526020018681526020018581526020018a6007546116369190613178565b8152602001848152602001600081526020016000600781111561165c5761165b613330565b5b8152602001600073ffffffffffffffffffffffffffffffffffffffff168152602001600073ffffffffffffffffffffffffffffffffffffffff168152602001600073ffffffffffffffffffffffffffffffffffffffff16815250905080600860008b8152602001908152602001600020600082015181600001556020820151816001015560408201518160020160006101000a81548173ffffffffffffffffffffffffffffffffffffffff021916908373ffffffffffffffffffffffffffffffffffffffff16021790555060608201518160030160006101000a81548173ffffffffffffffffffffffffffffffffffffffff021916908373ffffffffffffffffffffffffffffffffffffffff160217905550608082015181600401908051906020019061178a9291906128bb565b5060a08201518160050190805190602001906117a79291906128bb565b5060c08201518160060190805190602001906117c49291906128bb565b5060e08201518160070190805190602001906117e19291906128bb565b50610100820151816008015561012082015181600901908051906020019061180a9291906128bb565b5061014082015181600a015561016082015181600b0160006101000a81548160ff0219169083600781111561184257611841613330565b5b021790555061018082015181600b0160016101000a81548173ffffffffffffffffffffffffffffffffffffffff021916908373ffffffffffffffffffffffffffffffffffffffff1602179055506101a082015181600c0160006101000a81548173ffffffffffffffffffffffffffffffffffffffff021916908373ffffffffffffffffffffffffffffffffffffffff1602179055506101c082015181600d0160006101000a81548173ffffffffffffffffffffffffffffffffffffffff021916908373ffffffffffffffffffffffffffffffffffffffff16021790555090505060016007546119319190613178565b6007819055507f8e55ccfc9778ff8eba1646d765cf1982537ce0f9257054a17b48aad745250183896040516119669190612fbd565b60405180910390a1505050505050505050565b806006600781111561198e5761198d613330565b5b60086000838152602001908152602001600020600b0160009054906101000a900460ff1660078111156119c4576119c3613330565b5b14611a04576040517f08c379a00000000000000000000000000000000000000000000000000000000081526004016119fb90612ebd565b60405180910390fd5b611a0d336111ea565b611a4c576040517f08c379a0000000000000000000000000000000000000000000000000000000008152600401611a4390612e1d565b60405180910390fd5b6000339050806008600085815260200190815260200160002060020160006101000a81548173ffffffffffffffffffffffffffffffffffffffff021916908373ffffffffffffffffffffffffffffffffffffffff1602179055508060086000858152602001908152602001600020600d0160006101000a81548173ffffffffffffffffffffffffffffffffffffffff021916908373ffffffffffffffffffffffffffffffffffffffff160217905550600760086000858152602001908152602001600020600b0160006101000a81548160ff02191690836007811115611b3557611b34613330565b5b02179055507f653d56639fee6b566a5c804764e9689de38645f0b733df89a36a1b7b42173dd883604051611b699190612fbd565b60405180910390a1505050565b611b7f336126bf565b565b8060036007811115611b9657611b95613330565b5b60086000838152602001908152602001600020600b0160009054906101000a900460ff166007811115611bcc57611bcb613330565b5b14611c0c576040517f08c379a0000000000000000000000000000000000000000000000000000000008152600401611c0390612f3d565b60405180910390fd5b3480341015611c50576040517f08c379a0000000000000000000000000000000000000000000000000000000008152600401611c4790612e7d565b60405180910390fd5b82611c5a3361125b565b611c99576040517f08c379a0000000000000000000000000000000000000000000000000000000008152600401611c9090612e5d565b60405180910390fd5b6000339050806008600087815260200190815260200160002060020160006101000a81548173ffffffffffffffffffffffffffffffffffffffff021916908373ffffffffffffffffffffffffffffffffffffffff1602179055508060086000878152602001908152602001600020600b0160016101000a81548173ffffffffffffffffffffffffffffffffffffffff021916908373ffffffffffffffffffffffffffffffffffffffff160217905550600460086000878152602001908152602001600020600b0160006101000a81548160ff02191690836007811115611d8257611d81613330565b5b02179055506008600086815260200190815260200160002060030160009054906101000a900473ffffffffffffffffffffffffffffffffffffffff1673ffffffffffffffffffffffffffffffffffffffff166108fc60086000888152602001908152602001600020600a01549081150290604051600060405180830381858888f19350505050158015611e19573d6000803e3d6000fd5b507f92f64ca637d023f354075a4be751b169c1a8a9ccb6d33cdd0cb352054399572785604051611e499190612fbd565b60405180910390a150600060086000838152602001908152602001600020600a0154905060008134611e7b91906131ce565b905060086000848152602001908152602001600020600d0160009054906101000a900473ffffffffffffffffffffffffffffffffffffffff1673ffffffffffffffffffffffffffffffffffffffff166108fc829081150290604051600060405180830381858888f19350505050158015611ef9573d6000803e3d6000fd5b50505050505050565b600560009054906101000a900473ffffffffffffffffffffffffffffffffffffffff1673ffffffffffffffffffffffffffffffffffffffff163373ffffffffffffffffffffffffffffffffffffffff1614611f5c57600080fd5b611f6581612719565b50565b8060016007811115611f7d57611f7c613330565b5b60086000838152602001908152602001600020600b0160009054906101000a900460ff166007811115611fb357611fb2613330565b5b14611ff3576040517f08c379a0000000000000000000000000000000000000000000000000000000008152600401611fea90612f9d565b60405180910390fd5b6008600083815260200190815260200160002060030160009054906101000a900473ffffffffffffffffffffffffffffffffffffffff168073ffffffffffffffffffffffffffffffffffffffff163373ffffffffffffffffffffffffffffffffffffffff1614612098576040517f08c379a000000000000000000000000000000000000000000000000000000000815260040161208f90612edd565b60405180910390fd5b6120a1336114cc565b6120e0576040517f08c379a00000000000000000000000000000000000000000000000000000000081526004016120d790612f5d565b60405180910390fd5b600260086000858152602001908152602001600020600b0160006101000a81548160ff0219169083600781111561211a57612119613330565b5b02179055507f9b3b66e2380b690bae22c73ef1428fb0c91e72fe14a4b6defa13035214187aff8360405161214e9190612fbd565b60405180910390a1505050565b80600460078111156121705761216f613330565b5b60086000838152602001908152602001600020600b0160009054906101000a900460ff1660078111156121a6576121a5613330565b5b146121e6576040517f08c379a00000000000000000000000000000000000000000000000000000000081526004016121dd90612e9d565b60405180910390fd5b6008600083815260200190815260200160002060020160009054906101000a900473ffffffffffffffffffffffffffffffffffffffff168073ffffffffffffffffffffffffffffffffffffffff163373ffffffffffffffffffffffffffffffffffffffff161461228b576040517f08c379a000000000000000000000000000000000000000000000000000000000815260040161228290612edd565b60405180910390fd5b6122943361125b565b6122d3576040517f08c379a00000000000000000000000000000000000000000000000000000000081526004016122ca90612e5d565b60405180910390fd5b600560086000858152602001908152602001600020600b0160006101000a81548160ff0219169083600781111561230d5761230c613330565b5b02179055507ff00b9a5725b80c54016f42114f6ed7792d22eecb116011c4afac29c57bef6c95836040516123419190612fbd565b60405180910390a1505050565b600073ffffffffffffffffffffffffffffffffffffffff168173ffffffffffffffffffffffffffffffffffffffff16141561238857600080fd5b6123928282612454565b1561239c57600080fd5b60018260000160008373ffffffffffffffffffffffffffffffffffffffff1673ffffffffffffffffffffffffffffffffffffffff16815260200190815260200160002060006101000a81548160ff0219169083151502179055505050565b61240e81600461234e90919063ffffffff16565b8073ffffffffffffffffffffffffffffffffffffffff167f28b26e7a3d20aedbc5f8f2ebf7da671c0491723a2b78f47a097b0e46dee0714260405160405180910390a250565b60008073ffffffffffffffffffffffffffffffffffffffff168273ffffffffffffffffffffffffffffffffffffffff16141561248f57600080fd5b8260000160008373ffffffffffffffffffffffffffffffffffffffff1673ffffffffffffffffffffffffffffffffffffffff16815260200190815260200160002060009054906101000a900460ff16905092915050565b6124fa81600461281090919063ffffffff16565b8073ffffffffffffffffffffffffffffffffffffffff167fe3f5ed5f263f1f01764a96edfc7d025f511ec5f7d180e8816908b78bcf74f09860405160405180910390a250565b61255481600261281090919063ffffffff16565b8073ffffffffffffffffffffffffffffffffffffffff167f126174f6cf49c81cdb4a9214c6b8f037bef55b4ec31e4fc776cea2a1c8a88d5960405160405180910390a250565b6125ae81600261234e90919063ffffffff16565b8073ffffffffffffffffffffffffffffffffffffffff167f640591101e3887776cd3fa5a43ac12b136c73f29ecd6718b59db93b4cc62890860405160405180910390a250565b61260881600161234e90919063ffffffff16565b8073ffffffffffffffffffffffffffffffffffffffff167f2e0ded4123377a3c2bc9a26f1717655a129e2f20752924d42e730ec89c83dbd060405160405180910390a250565b61266281600161281090919063ffffffff16565b8073ffffffffffffffffffffffffffffffffffffffff167fa5e0f060af304ab17dd418c7927e3da3ae7868189bf387aee09ab179ccc572f260405160405180910390a250565b6126bc81600361234e90919063ffffffff16565b50565b6126d381600361281090919063ffffffff16565b8073ffffffffffffffffffffffffffffffffffffffff167fdb7176e79cffef81cb01767dd0447a0b24bb72ca9778d4b245581086b2a7e6db60405160405180910390a250565b600073ffffffffffffffffffffffffffffffffffffffff168173ffffffffffffffffffffffffffffffffffffffff16141561275357600080fd5b8073ffffffffffffffffffffffffffffffffffffffff1660008054906101000a900473ffffffffffffffffffffffffffffffffffffffff1673ffffffffffffffffffffffffffffffffffffffff167f5c486528ec3e3f0ea91181cff8116f02bfa350e03b8b6f12e00765adbb5af85c60405160405180910390a3806000806101000a81548173ffffffffffffffffffffffffffffffffffffffff021916908373ffffffffffffffffffffffffffffffffffffffff16021790555050565b600073ffffffffffffffffffffffffffffffffffffffff168173ffffffffffffffffffffffffffffffffffffffff16141561284a57600080fd5b6128548282612454565b61285d57600080fd5b60008260000160008373ffffffffffffffffffffffffffffffffffffffff1673ffffffffffffffffffffffffffffffffffffffff16815260200190815260200160002060006101000a81548160ff0219169083151502179055505050565b8280546128c79061329e565b90600052602060002090601f0160209004810192826128e95760008555612930565b82601f1061290257805160ff1916838001178555612930565b82800160010185558215612930579182015b8281111561292f578251825591602001919060010190612914565b5b50905061293d9190612941565b5090565b5b8082111561295a576000816000905550600101612942565b5090565b600061297161296c8461312b565b613106565b90508281526020810184848401111561298d5761298c6133c2565b5b61299884828561325c565b509392505050565b6000813590506129af816135f7565b92915050565b6000813590506129c48161360e565b92915050565b600082601f8301126129df576129de6133bd565b5b81356129ef84826020860161295e565b91505092915050565b600081359050612a0781613625565b92915050565b600060208284031215612a2357612a226133cc565b5b6000612a31848285016129a0565b91505092915050565b600060208284031215612a5057612a4f6133cc565b5b6000612a5e848285016129f8565b91505092915050565b600080600080600080600060e0888a031215612a8657612a856133cc565b5b6000612a948a828b016129f8565b9750506020612aa58a828b016129b5565b965050604088013567ffffffffffffffff811115612ac657612ac56133c7565b5b612ad28a828b016129ca565b955050606088013567ffffffffffffffff811115612af357612af26133c7565b5b612aff8a828b016129ca565b945050608088013567ffffffffffffffff811115612b2057612b1f6133c7565b5b612b2c8a828b016129ca565b93505060a088013567ffffffffffffffff811115612b4d57612b4c6133c7565b5b612b598a828b016129ca565b92505060c088013567ffffffffffffffff811115612b7a57612b796133c7565b5b612b868a828b016129ca565b91505092959891949750929550565b60008060408385031215612bac57612bab6133cc565b5b6000612bba858286016129f8565b9250506020612bcb858286016129f8565b9150509250929050565b612bde81613202565b82525050565b612bed81613226565b82525050565b6000612bfe8261315c565b612c088185613167565b9350612c1881856020860161326b565b612c21816133d1565b840191505092915050565b6000612c39601583613167565b9150612c44826133e2565b602082019050919050565b6000612c5c600b83613167565b9150612c678261340b565b602082019050919050565b6000612c7f601883613167565b9150612c8a82613434565b602082019050919050565b6000612ca2600f83613167565b9150612cad8261345d565b602082019050919050565b6000612cc5601383613167565b9150612cd082613486565b602082019050919050565b6000612ce8600c83613167565b9150612cf3826134af565b602082019050919050565b6000612d0b600d83613167565b9150612d16826134d8565b602082019050919050565b6000612d2e600d83613167565b9150612d3982613501565b602082019050919050565b6000612d51601583613167565b9150612d5c8261352a565b602082019050919050565b6000612d74600c83613167565b9150612d7f82613553565b602082019050919050565b6000612d97600c83613167565b9150612da28261357c565b602082019050919050565b6000612dba600a83613167565b9150612dc5826135a5565b602082019050919050565b6000612ddd600d83613167565b9150612de8826135ce565b602082019050919050565b612dfc81613252565b82525050565b6000602082019050612e176000830184612be4565b92915050565b60006020820190508181036000830152612e3681612c2c565b9050919050565b60006020820190508181036000830152612e5681612c4f565b9050919050565b60006020820190508181036000830152612e7681612c72565b9050919050565b60006020820190508181036000830152612e9681612c95565b9050919050565b60006020820190508181036000830152612eb681612cb8565b9050919050565b60006020820190508181036000830152612ed681612cdb565b9050919050565b60006020820190508181036000830152612ef681612cfe565b9050919050565b60006020820190508181036000830152612f1681612d21565b9050919050565b60006020820190508181036000830152612f3681612d44565b9050919050565b60006020820190508181036000830152612f5681612d67565b9050919050565b60006020820190508181036000830152612f7681612d8a565b9050919050565b60006020820190508181036000830152612f9681612dad565b9050919050565b60006020820190508181036000830152612fb681612dd0565b9050919050565b6000602082019050612fd26000830184612df3565b92915050565b600061010082019050612fee600083018b612df3565b612ffb602083018a612df3565b6130086040830189612bd5565b6130156060830188612bd5565b81810360808301526130278187612bf3565b905081810360a083015261303b8186612bf3565b905081810360c083015261304f8185612bf3565b905081810360e08301526130638184612bf3565b90509998505050505050505050565b600061012082019050613088600083018c612df3565b613095602083018b612df3565b6130a2604083018a612df3565b81810360608301526130b48189612bf3565b90506130c36080830188612df3565b6130d060a0830187612df3565b6130dd60c0830186612bd5565b6130ea60e0830185612bd5565b6130f8610100830184612bd5565b9a9950505050505050505050565b6000613110613121565b905061311c82826132d0565b919050565b6000604051905090565b600067ffffffffffffffff8211156131465761314561338e565b5b61314f826133d1565b9050602081019050919050565b600081519050919050565b600082825260208201905092915050565b600061318382613252565b915061318e83613252565b9250827fffffffffffffffffffffffffffffffffffffffffffffffffffffffffffffffff038211156131c3576131c2613301565b5b828201905092915050565b60006131d982613252565b91506131e483613252565b9250828210156131f7576131f6613301565b5b828203905092915050565b600061320d82613232565b9050919050565b600061321f82613232565b9050919050565b60008115159050919050565b600073ffffffffffffffffffffffffffffffffffffffff82169050919050565b6000819050919050565b82818337600083830152505050565b60005b8381101561328957808201518184015260208101905061326e565b83811115613298576000848401525b50505050565b600060028204905060018216806132b657607f821691505b602082108114156132ca576132c961335f565b5b50919050565b6132d9826133d1565b810181811067ffffffffffffffff821117156132f8576132f761338e565b5b80604052505050565b7f4e487b7100000000000000000000000000000000000000000000000000000000600052601160045260246000fd5b7f4e487b7100000000000000000000000000000000000000000000000000000000600052602160045260246000fd5b7f4e487b7100000000000000000000000000000000000000000000000000000000600052602260045260246000fd5b7f4e487b7100000000000000000000000000000000000000000000000000000000600052604160045260246000fd5b600080fd5b600080fd5b600080fd5b600080fd5b6000601f19601f8301169050919050565b7f596f7520617265206e6f7420636f6e73756d65722e0000000000000000000000600082015250565b7f6e6f742053686970706564000000000000000000000000000000000000000000600082015250565b7f596f7520617265206e6f74206469737472696275746f722e0000000000000000600082015250565b7f6e6f74207061696420656e6f7567680000000000000000000000000000000000600082015250565b7f61766162696c61626c6520666f722073616c6500000000000000000000000000600082015250565b7f6e6f742072656365697665640000000000000000000000000000000000000000600082015250565b7f7665726966792063616c6c657200000000000000000000000000000000000000600082015250565b7f6e6f742068617276657374656400000000000000000000000000000000000000600082015250565b7f596f7520617265206e6f742072657461696c65722e0000000000000000000000600082015250565b7f6e6f7420666f722073616c650000000000000000000000000000000000000000600082015250565b7f6e6f742061206661726d65720000000000000000000000000000000000000000600082015250565b7f6e6f74207061636b656400000000000000000000000000000000000000000000600082015250565b7f6e6f742070726f63657373656400000000000000000000000000000000000000600082015250565b61360081613202565b811461360b57600080fd5b50565b61361781613214565b811461362257600080fd5b50565b61362e81613252565b811461363957600080fd5b5056fea2646970667358221220b15e2287cbf56fd7c54b27ca7f9c6caae0e941318fd46f44f92741196c58fec664736f6c63430008060033",
  "immutableReferences": {},
  "source": "// SPDX-License-Identifier: MIT\npragma solidity ^0.8.6;\n\nimport \"../coffeecore/Ownable.sol\";\nimport \"../coffeeaccesscontrol/FarmerRole.sol\";\nimport \"../coffeeaccesscontrol/DistributorRole.sol\";\nimport \"../coffeeaccesscontrol/RetailerRole.sol\";\nimport \"../coffeeaccesscontrol/ConsumerRole.sol\";\n\n// Define a contract 'Supplychain'\ncontract SupplyChain is Ownable, FarmerRole, DistributorRole, RetailerRole, ConsumerRole {\n\n  // Define 'owner'\n  address payable owner;\n\n  // Define a variable called 'upc' for Universal Product Code (UPC)\n  uint  upc;\n\n  // Define a variable called 'sku' for Stock Keeping Unit (SKU)\n  uint  sku;\n\n  // Define a public mapping 'items' that maps the UPC to an Item.\n  mapping (uint => Item) items;\n\n  // Define a public mapping 'itemsHistory' that maps the UPC to an array of TxHash, \n  // that track its journey through the supply chain -- to be sent from DApp.\n  mapping (uint => string[]) itemsHistory;\n  \n  // Define enum 'State' with the following values:\n  enum State \n  { \n    Harvested,  // 0\n    Processed,  // 1\n    Packed,     // 2\n    ForSale,    // 3\n    Sold,       // 4\n    Shipped,    // 5\n    Received,   // 6\n    Purchased   // 7\n    }\n\n  State constant defaultState = State.Harvested;\n\n  // Define a struct 'Item' with the following fields:\n  struct Item {\n    uint    sku;  // Stock Keeping Unit (SKU)\n    uint    upc; // Universal Product Code (UPC), generated by the Farmer, goes on the package, can be verified by the Consumer\n    address ownerID;  // Metamask-Ethereum address of the current owner as the product moves through 8 stages\n    address payable originFarmerID; // Metamask-Ethereum address of the Farmer\n    string  originFarmName; // Farmer Name\n    string  originFarmInformation;  // Farmer Information\n    string  originFarmLatitude; // Farm Latitude\n    string  originFarmLongitude;  // Farm Longitude\n    uint    productID;  // Product ID potentially a combination of upc + sku\n    string  productNotes; // Product Notes\n    uint    productPrice; // Product Price\n    State   itemState;  // Product State as represented in the enum above\n    address distributorID;  // Metamask-Ethereum address of the Distributor\n    address retailerID; // Metamask-Ethereum address of the Retailer\n    address payable consumerID; // Metamask-Ethereum address of the Consumer\n  }\n\n  // Define 8 events with the same 8 state values and accept 'upc' as input argument\n  event Harvested(uint upc);\n  event Processed(uint upc);\n  event Packed(uint upc);\n  event ForSale(uint upc);\n  event Sold(uint upc);\n  event Shipped(uint upc);\n  event Received(uint upc);\n  event Purchased(uint upc);\n\n  // Define a modifer that checks to see if msg.sender == owner of the contract\n  modifier onlyOwner() override {\n    require(msg.sender == owner);\n    _;\n  }\n\n  // Define a modifer that verifies the Caller\n  modifier verifyCaller (address _address) {\n    require(msg.sender == _address, \"verify caller\"); \n    _;\n  }\n\n  // Define a modifier that checks if the paid amount is sufficient to cover the price\n  modifier paidEnough(uint _price) { \n    require(msg.value >= _price, \"not paid enough\"); \n    _;\n  }\n  \n  // Define a modifier that checks the price and refunds the remaining balance\n  modifier checkValue(uint _upc) {\n    _;\n    uint _price = items[_upc].productPrice;\n    uint amountToReturn = msg.value - _price;\n    items[_upc].consumerID.transfer(amountToReturn);\n  }\n\n  // Define a modifier that checks if an item.state of a upc is Harvested\n  modifier harvested(uint _upc) {\n    require(items[_upc].itemState == State.Harvested, \"not harvested\");\n    _;\n  }\n\n  // Define a modifier that checks if an item.state of a upc is Processed\n  modifier processed(uint _upc) {\n    require(items[_upc].itemState == State.Processed, \"not processed\");\n    _;\n  }\n  \n  // Define a modifier that checks if an item.state of a upc is Packed\n  modifier packed(uint _upc) {\n    require(items[_upc].itemState == State.Packed, \"not packed\");\n    _;\n  }\n\n  // Define a modifier that checks if an item.state of a upc is ForSale\n  modifier forSale(uint _upc) {\n    require(items[_upc].itemState == State.ForSale, \"not for sale\");\n    _;\n  }\n\n  // Define a modifier that checks if an item.state of a upc is Sold\n  modifier sold(uint _upc) {\n    require(items[_upc].itemState == State.Sold, \"avabilable for sale\");\n    _;\n  }\n  \n  // Define a modifier that checks if an item.state of a upc is Shipped\n  modifier shipped(uint _upc) {\n    require(items[_upc].itemState == State.Shipped, \"not Shipped\");\n    _;\n  }\n\n  // Define a modifier that checks if an item.state of a upc is Received\n  modifier received(uint _upc) {\n    require(items[_upc].itemState == State.Received, \"not received\");\n    _;\n  }\n\n  // Define a modifier that checks if an item.state of a upc is Purchased\n  modifier purchased(uint _upc) {\n    require(items[_upc].itemState == State.Purchased, \"not pruchased\");\n    _;\n  }\n\n  // In the constructor set 'owner' to the address that instantiated the contract\n  // and set 'sku' to 1\n  // and set 'upc' to 1\n  constructor() payable {\n    owner = payable(msg.sender);\n    sku = 1;\n    upc = 1;\n  }\n\n  // Define a function 'kill' if required\n  function kill() public {\n    if (msg.sender == owner) {\n      selfdestruct(owner);\n    }\n  }\n\n  // Define a function 'harvestItem' that allows a farmer to mark an item 'Harvested'\n  function harvestItem(\n    uint _upc,\n    address payable _originFarmerID,\n    string memory _originFarmName,\n    string memory _originFarmInformation,\n    string memory _originFarmLatitude,\n    string memory _originFarmLongitude,\n    string memory _productNotes)\n    // Call modifier to check if it's harvested\n    public harvested(_upc)\n    onlyFarmer\n  {\n    // Add the new item as part of Harvest\n    Item memory item  = Item({\n      sku: sku,\n      upc: _upc,\n      ownerID: _originFarmerID,\n      originFarmerID: _originFarmerID,\n      originFarmName: _originFarmName,\n      originFarmInformation: _originFarmInformation,\n      originFarmLatitude: _originFarmLatitude,\n      originFarmLongitude: _originFarmLongitude,\n      productID: sku+_upc,\n      productNotes: _productNotes,\n      productPrice: 0,\n      itemState: State.Harvested,\n      distributorID: 0x0000000000000000000000000000000000000000,\n      retailerID: 0x0000000000000000000000000000000000000000,\n      consumerID: payable(0x0000000000000000000000000000000000000000)\n    });\n    items[_upc] = item;\n    // Increment sku\n    sku = sku + 1;\n    // Emit the appropriate event\n    emit Harvested(_upc);\n  }\n\n  // Define a function 'processtItem' that allows a farmer to mark an item 'Processed'\n  function processItem(uint _upc) public \n  // Call modifier to check if upc has passed previous supply chain stage\n  harvested(_upc)\n  // Call modifier to verify caller of this function\n  verifyCaller(items[_upc].originFarmerID)\n  onlyFarmer\n  {\n    // Update the appropriate fields\n    items[_upc].itemState = State.Processed;\n    // Emit the appropriate event\n    emit Processed(_upc);\n  }\n\n  // Define a function 'packItem' that allows a farmer to mark an item 'Packed'\n  function packItem(uint _upc) public \n  // Call modifier to check if upc has passed previous supply chain stage\n  processed(_upc)\n  // Call modifier to verify caller of this function\n  verifyCaller(items[_upc].originFarmerID)\n  onlyFarmer\n  {\n    // Update the appropriate fields\n    items[_upc].itemState = State.Packed;\n    // Emit the appropriate event\n    emit Packed(_upc);\n  }\n\n  // Define a function 'sellItem' that allows a farmer to mark an item 'ForSale'\n  function sellItem(uint _upc, uint _price) public \n  // Call modifier to check if upc has passed previous supply chain stage\n  packed(_upc)\n  // Call modifier to verify caller of this function\n  verifyCaller(items[_upc].ownerID)\n  onlyFarmer\n  {\n    // Update the appropriate fields\n    items[_upc].productPrice = _price;\n    items[_upc].itemState = State.ForSale;\n    // Emit the appropriate event\n    emit ForSale(_upc);\n  }\n\n  // Define a function 'buyItem' that allows the disributor to mark an item 'Sold'\n  // Use the above defined modifiers to check if the item is available for sale, if the buyer has paid enough, \n  // and any excess ether sent is refunded back to the buyer\n  function buyItem(uint _upc) public payable \n    // Call modifier to check if upc has passed previous supply chain stage\n    forSale(_upc)\n    // Call modifer to check if buyer has paid enough\n    paidEnough(msg.value)\n    // Call modifer to send any excess ether back to buyer\n    checkValue(_upc)\n    onlyDistributor\n    {\n      address distributor = msg.sender;\n      // Update the appropriate fields - ownerID, distributorID, itemState\n      items[_upc].ownerID = distributor;\n      items[_upc].distributorID = distributor;\n      items[_upc].itemState = State.Sold;\n      // Transfer money to farmer\n      items[_upc].originFarmerID.transfer(items[_upc].productPrice);\n      // emit the appropriate event\n      emit Sold(_upc);\n  }\n\n  // Define a function 'shipItem' that allows the distributor to mark an item 'Shipped'\n  // Use the above modifers to check if the item is sold\n  function shipItem(uint _upc) public \n    // Call modifier to check if upc has passed previous supply chain stage\n    sold(_upc)    \n    // Call modifier to verify caller of this function\n    verifyCaller(items[_upc].ownerID)\n    onlyDistributor\n    {\n    // Update the appropriate fields\n    items[_upc].itemState = State.Shipped;\n    // Emit the appropriate event\n    emit Shipped(_upc);\n  }\n\n  // Define a function 'receiveItem' that allows the retailer to mark an item 'Received'\n  // Use the above modifiers to check if the item is shipped\n  function receiveItem(uint _upc) public \n    // Call modifier to check if upc has passed previous supply chain stage\n    shipped(_upc)\n    // Access Control List enforced by calling Smart Contract / DApp\n    onlyRetailer\n    {\n    address receiver = msg.sender;\n    // Update the appropriate fields - ownerID, retailerID, itemState\n    items[_upc].ownerID = receiver;\n    items[_upc].retailerID = receiver;\n    items[_upc].itemState = State.Received;\n    // Emit the appropriate event\n    emit Received(_upc);\n  }\n\n  // Define a function 'purchaseItem' that allows the consumer to mark an item 'Purchased'\n  // Use the above modifiers to check if the item is received\n  function purchaseItem(uint _upc) public \n    // Call modifier to check if upc has passed previous supply chain stage\n    received(_upc)\n    // Access Control List enforced by calling Smart Contract / DApp\n    onlyConsumer\n    {\n    // Update the appropriate fields - ownerID, consumerID, itemState\n    address customer = msg.sender;\n    items[_upc].ownerID = customer;\n    items[_upc].consumerID = payable(customer);\n    items[_upc].itemState = State.Purchased;\n    // Emit the appropriate event\n    emit Purchased(_upc);\n  }\n\n  // Define a function 'fetchItemBufferOne' that fetches the data\n  function fetchItemBufferOne(uint _upc) public view returns \n  (\n  uint    itemSKU,\n  uint    itemUPC,\n  address ownerID,\n  address originFarmerID,\n  string memory originFarmName,\n  string memory originFarmInformation,\n  string memory originFarmLatitude,\n  string memory originFarmLongitude\n  ) \n  {\n  // Assign values to the 8 parameters\n  itemSKU = items[_upc].sku;\n  itemUPC = items[_upc].upc;\n  ownerID = items[_upc].ownerID;\n  originFarmerID = items[_upc].originFarmerID;\n  originFarmName = items[_upc].originFarmName;\n  originFarmInformation = items[_upc].originFarmInformation;\n  originFarmLatitude = items[_upc].originFarmLatitude;\n  originFarmLongitude = items[_upc].originFarmLongitude;\n\n  return \n  (\n  itemSKU,\n  itemUPC,\n  ownerID,\n  originFarmerID,\n  originFarmName,\n  originFarmInformation,\n  originFarmLatitude,\n  originFarmLongitude\n  );\n  }\n\n  // Define a function 'fetchItemBufferTwo' that fetches the data\n  function fetchItemBufferTwo(uint _upc) public view returns \n  (\n  uint    itemSKU,\n  uint    itemUPC,\n  uint    productID,\n  string memory productNotes,\n  uint    productPrice,\n  uint    itemState,\n  address distributorID,\n  address retailerID,\n  address consumerID\n  ) \n  {\n    // Assign values to the 9 parameters\n  itemSKU = items[_upc].sku;\n  itemUPC = items[_upc].upc;\n  productID = items[_upc].productID;\n  productNotes = items[_upc].productNotes;\n  productPrice = items[_upc].productPrice;\n  itemState = uint256(items[_upc].itemState);\n  distributorID = items[_upc].distributorID;\n  retailerID = items[_upc].retailerID;\n  consumerID = items[_upc].consumerID;\n    \n  return \n  (\n  itemSKU,\n  itemUPC,\n  productID,\n  productNotes,\n  productPrice,\n  itemState,\n  distributorID,\n  retailerID,\n  consumerID\n  );\n  }\n}\n",
  "sourcePath": "/Users/bberta/playground/nanodegree_programe/Etherum/nd1309-Project-6b-Example-Template/project-6/contracts/coffeebase/SupplyChain.sol",
  "compiler": {
    "name": "solc",
    "version": "0.8.6+commit.11564f7e.Emscripten.clang"
  },
  "schemaVersion": "3.3.4",
  "updatedAt": "2021-07-09T16:24:40.281Z",
  "networkType": "ethereum",
  "devdoc": {
    "kind": "dev",
    "methods": {},
    "version": 1
  },
  "userdoc": {
    "kind": "user",
    "methods": {
      "isOwner()": {
        "notice": "Check if the calling address is the owner of the contract"
      },
      "renounceOwnership()": {
        "notice": "Define a function to renounce ownerhip"
      },
      "transferOwnership(address)": {
        "notice": "Define a public function to transfer ownership"
      }
    },
    "version": 1
  }
}